ARM GAS  /tmp/ccj5et8j.s 			page 1


   1              		.syntax unified
   2              		.thumb
   3              		.file	"testpools.c"
   4              		.section	.debug_abbrev,"",%progbits
   5              	.Ldebug_abbrev0:
   6              		.section	.debug_info,"",%progbits
   7              	.Ldebug_info0:
   8              		.section	.debug_line,"",%progbits
   9              	.Ldebug_line0:
  10 0000 0B010000 		.text
  10      0200BC00 
  10      00000201 
  10      FB0E0D00 
  10      01010101 
  11              	.Ltext0:
  12              		.cfi_sections	.debug_frame
  13              		.section	.text.pools1_gettest,"ax",%progbits
  14              		.align	2
  15              		.p2align 4,,15
  16              		.thumb
  17              		.thumb_func
  18              		.type	pools1_gettest, %function
  19              	pools1_gettest:
  20              	.LFB5:
  21              		.file 1 "chibios/test/testpools.c"
  22              		.loc 1 68 0
  23              		.cfi_startproc
  24              		@ args = 0, pretend = 0, frame = 0
  25              		@ frame_needed = 0, uses_anonymous_args = 0
  26              		@ link register save eliminated.
  27              		.loc 1 68 0
  28 0000 40F20000 		movw	r0, #:lower16:.LC0
  29 0004 C0F20000 		movt	r0, #:upper16:.LC0
  30              		.loc 1 71 0
  31 0008 7047     		bx	lr
  32              		.cfi_endproc
  33              	.LFE5:
  34              		.size	pools1_gettest, .-pools1_gettest
  35 000a 00BFAFF3 		.section	.text.pools1_execute,"ax",%progbits
  35      0080
  36              		.align	2
  37              		.p2align 4,,15
  38              		.thumb
  39              		.thumb_func
  40              		.type	pools1_execute, %function
  41              	pools1_execute:
  42              	.LFB7:
  43              		.loc 1 78 0
  44              		.cfi_startproc
  45              		@ args = 0, pretend = 0, frame = 0
  46              		@ frame_needed = 0, uses_anonymous_args = 0
  47              	.LVL0:
  48 0000 30B5     		push	{r4, r5, lr}
  49              	.LCFI0:
  50              		.cfi_def_cfa_offset 12
  51              		.loc 1 82 0
  52 0002 114C     		ldr	r4, .L9
ARM GAS  /tmp/ccj5et8j.s 			page 2


  53              		.cfi_offset 14, -4
  54              		.cfi_offset 5, -8
  55              		.cfi_offset 4, -12
  56              		.loc 1 78 0
  57 0004 04F11405 		add	r5, r4, #20
  58              	.LVL1:
  59              	.L3:
  60              		.loc 1 83 0 discriminator 2
  61 0008 54F8041B 		ldr	r1, [r4], #4
  62 000c 0F48     		ldr	r0, .L9+4
  63 000e FFF7FEFF 		bl	chPoolFree
  64              		.loc 1 82 0 discriminator 2
  65 0012 AC42     		cmp	r4, r5
  66 0014 F8D1     		bne	.L3
  67              		.loc 1 82 0 is_stmt 0
  68 0016 0524     		movs	r4, #5
  69              	.L5:
  70              		.loc 1 87 0 is_stmt 1
  71 0018 0C48     		ldr	r0, .L9+4
  72 001a FFF7FEFF 		bl	chPoolAlloc
  73 001e 011E     		subs	r1, r0, #0
  74 0020 18BF     		it	ne
  75 0022 0121     		movne	r1, #1
  76 0024 0120     		movs	r0, #1
  77 0026 FFF7FEFF 		bl	_test_assert
  78 002a 60B9     		cbnz	r0, .L2
  79              		.loc 1 86 0
  80 002c 14F1FF34 		adds	r4, r4, #-1
  81 0030 F2D1     		bne	.L5
  82              		.loc 1 90 0
  83 0032 0648     		ldr	r0, .L9+4
  84 0034 FFF7FEFF 		bl	chPoolAlloc
  85 0038 D0F10101 		rsbs	r1, r0, #1
  86 003c 38BF     		it	cc
  87 003e 0021     		movcc	r1, #0
  88 0040 0220     		movs	r0, #2
  89 0042 FFF7FEFF 		bl	_test_assert
  90              	.L2:
  91              		.loc 1 91 0
  92 0046 30BD     		pop	{r4, r5, pc}
  93              	.L10:
  94              		.align	2
  95              	.L9:
  96 0048 00000000 		.word	wa
  97 004c 00000000 		.word	.LANCHOR0
  98              		.cfi_endproc
  99              	.LFE7:
 100              		.size	pools1_execute, .-pools1_execute
 101              		.section	.text.pools1_setup,"ax",%progbits
 102              		.align	2
 103              		.p2align 4,,15
 104              		.thumb
 105              		.thumb_func
 106              		.type	pools1_setup, %function
 107              	pools1_setup:
 108              	.LFB6:
 109              		.loc 1 73 0
ARM GAS  /tmp/ccj5et8j.s 			page 3


 110              		.cfi_startproc
 111              		@ args = 0, pretend = 0, frame = 0
 112              		@ frame_needed = 0, uses_anonymous_args = 0
 113              		.loc 1 75 0
 114 0000 40F20000 		movw	r0, #:lower16:.LANCHOR0
 115              		.loc 1 73 0
 116 0004 00B5     		push	{lr}
 117              	.LCFI1:
 118              		.cfi_def_cfa_offset 4
 119              		.loc 1 75 0
 120 0006 C0F20000 		movt	r0, #:upper16:.LANCHOR0
 121 000a 4FF48271 		mov	r1, #260
 122 000e 0022     		movs	r2, #0
 123              		.cfi_offset 14, -4
 124 0010 FFF7FEFF 		bl	chPoolInit
 125              		.loc 1 76 0
 126 0014 00BD     		pop	{pc}
 127              		.cfi_endproc
 128              	.LFE6:
 129              		.size	pools1_setup, .-pools1_setup
 130              		.global	testpools1
 131              		.global	patternpools
 132 0016 00BFAFF3 		.section	.rodata.str1.4,"aMS",%progbits,1
 132      0080AFF3 
 132      0080
 133              		.align	2
 134              	.LC0:
 135 0000 4D656D6F 		.ascii	"Memory Pools, queue/dequeue\000"
 135      72792050 
 135      6F6F6C73 
 135      2C207175 
 135      6575652F 
 136              		.section	.rodata.patternpools,"a",%progbits
 137              		.align	2
 138              		.type	patternpools, %object
 139              		.size	patternpools, 8
 140              	patternpools:
 141 0000 00000000 		.word	testpools1
 142 0004 00000000 		.word	0
 143              		.section	.data.mp1,"aw",%progbits
 144              		.align	2
 145              		.set	.LANCHOR0,. + 0
 146              		.type	mp1, %object
 147              		.size	mp1, 12
 148              	mp1:
 149 0000 00000000 		.word	0
 150 0004 04010000 		.word	260
 151 0008 00000000 		.word	0
 152              		.section	.rodata.testpools1,"a",%progbits
 153              		.align	2
 154              		.type	testpools1, %object
 155              		.size	testpools1, 16
 156              	testpools1:
 157 0000 00000000 		.word	pools1_gettest
 158 0004 00000000 		.word	pools1_setup
 159 0008 00000000 		.word	0
 160 000c 00000000 		.word	pools1_execute
ARM GAS  /tmp/ccj5et8j.s 			page 4


 161              		.text
 162              	.Letext0:
