ARM GAS  /tmp/ccxJpt1h.s 			page 1


   1              		.syntax unified
   2              		.thumb
   3              		.file	"testevt.c"
   4              		.section	.debug_abbrev,"",%progbits
   5              	.Ldebug_abbrev0:
   6              		.section	.debug_info,"",%progbits
   7              	.Ldebug_info0:
   8              		.section	.debug_line,"",%progbits
   9              	.Ldebug_line0:
  10 0000 CE020000 		.text
  10      02005401 
  10      00000201 
  10      FB0E0D00 
  10      01010101 
  11              	.Ltext0:
  12              		.cfi_sections	.debug_frame
  13              		.section	.text.evt1_gettest,"ax",%progbits
  14              		.align	2
  15              		.p2align 4,,15
  16              		.thumb
  17              		.thumb_func
  18              		.type	evt1_gettest, %function
  19              	evt1_gettest:
  20              	.LFB5:
  21              		.file 1 "chibios/test/testevt.c"
  22              		.loc 1 83 0
  23              		.cfi_startproc
  24              		@ args = 0, pretend = 0, frame = 0
  25              		@ frame_needed = 0, uses_anonymous_args = 0
  26              		@ link register save eliminated.
  27              		.loc 1 83 0
  28 0000 40F20000 		movw	r0, #:lower16:.LC0
  29 0004 C0F20000 		movt	r0, #:upper16:.LC0
  30              		.loc 1 86 0
  31 0008 7047     		bx	lr
  32              		.cfi_endproc
  33              	.LFE5:
  34              		.size	evt1_gettest, .-evt1_gettest
  35 000a 00BFAFF3 		.section	.text.evt2_gettest,"ax",%progbits
  35      0080
  36              		.align	2
  37              		.p2align 4,,15
  38              		.thumb
  39              		.thumb_func
  40              		.type	evt2_gettest, %function
  41              	evt2_gettest:
  42              	.LFB11:
  43              		.loc 1 141 0
  44              		.cfi_startproc
  45              		@ args = 0, pretend = 0, frame = 0
  46              		@ frame_needed = 0, uses_anonymous_args = 0
  47              		@ link register save eliminated.
  48              		.loc 1 141 0
  49 0000 40F20000 		movw	r0, #:lower16:.LC1
  50 0004 C0F20000 		movt	r0, #:upper16:.LC1
  51              		.loc 1 144 0
  52 0008 7047     		bx	lr
ARM GAS  /tmp/ccxJpt1h.s 			page 2


  53              		.cfi_endproc
  54              	.LFE11:
  55              		.size	evt2_gettest, .-evt2_gettest
  56 000a 00BFAFF3 		.section	.text.evt3_gettest,"ax",%progbits
  56      0080
  57              		.align	2
  58              		.p2align 4,,15
  59              		.thumb
  60              		.thumb_func
  61              		.type	evt3_gettest, %function
  62              	evt3_gettest:
  63              	.LFB16:
  64              		.loc 1 265 0
  65              		.cfi_startproc
  66              		@ args = 0, pretend = 0, frame = 0
  67              		@ frame_needed = 0, uses_anonymous_args = 0
  68              		@ link register save eliminated.
  69              		.loc 1 265 0
  70 0000 40F20000 		movw	r0, #:lower16:.LC2
  71 0004 C0F20000 		movt	r0, #:upper16:.LC2
  72              		.loc 1 268 0
  73 0008 7047     		bx	lr
  74              		.cfi_endproc
  75              	.LFE16:
  76              		.size	evt3_gettest, .-evt3_gettest
  77 000a 00BFAFF3 		.section	.text.evt3_execute,"ax",%progbits
  77      0080
  78              		.align	2
  79              		.p2align 4,,15
  80              		.thumb
  81              		.thumb_func
  82              		.type	evt3_execute, %function
  83              	evt3_execute:
  84              	.LFB18:
  85              		.loc 1 275 0
  86              		.cfi_startproc
  87              		@ args = 0, pretend = 0, frame = 0
  88              		@ frame_needed = 0, uses_anonymous_args = 0
  89              		.loc 1 281 0
  90 0000 4FF0FF31 		mov	r1, #-1
  91 0004 0846     		mov	r0, r1
  92              		.loc 1 275 0
  93 0006 00B5     		push	{lr}
  94              	.LCFI0:
  95              		.cfi_def_cfa_offset 4
  96              		.loc 1 281 0
  97              		.cfi_offset 14, -4
  98 0008 FFF7FEFF 		bl	chEvtWaitOneTimeout
  99              	.LVL0:
 100              		.loc 1 282 0
 101 000c D0F10101 		rsbs	r1, r0, #1
 102 0010 38BF     		it	cc
 103 0012 0021     		movcc	r1, #0
 104 0014 0120     		movs	r0, #1
 105              	.LVL1:
 106 0016 FFF7FEFF 		bl	_test_assert
 107 001a 00B1     		cbz	r0, .L7
ARM GAS  /tmp/ccxJpt1h.s 			page 3


 108              	.L4:
 109              		.loc 1 293 0
 110 001c 00BD     		pop	{pc}
 111              	.L7:
 112              		.loc 1 283 0
 113 001e 4FF0FF31 		mov	r1, #-1
 114 0022 0846     		mov	r0, r1
 115 0024 FFF7FEFF 		bl	chEvtWaitAnyTimeout
 116              	.LVL2:
 117              		.loc 1 284 0
 118 0028 D0F10101 		rsbs	r1, r0, #1
 119 002c 38BF     		it	cc
 120 002e 0021     		movcc	r1, #0
 121 0030 0220     		movs	r0, #2
 122              	.LVL3:
 123 0032 FFF7FEFF 		bl	_test_assert
 124 0036 0028     		cmp	r0, #0
 125 0038 F0D1     		bne	.L4
 126              		.loc 1 285 0
 127 003a 4FF0FF31 		mov	r1, #-1
 128 003e 0846     		mov	r0, r1
 129 0040 FFF7FEFF 		bl	chEvtWaitAllTimeout
 130              	.LVL4:
 131              		.loc 1 286 0
 132 0044 D0F10101 		rsbs	r1, r0, #1
 133 0048 38BF     		it	cc
 134 004a 0021     		movcc	r1, #0
 135 004c 0320     		movs	r0, #3
 136              	.LVL5:
 137 004e FFF7FEFF 		bl	_test_assert
 138 0052 0028     		cmp	r0, #0
 139 0054 E2D1     		bne	.L4
 140              		.loc 1 287 0
 141 0056 0A21     		movs	r1, #10
 142 0058 4FF0FF30 		mov	r0, #-1
 143 005c FFF7FEFF 		bl	chEvtWaitOneTimeout
 144              	.LVL6:
 145              		.loc 1 288 0
 146 0060 D0F10101 		rsbs	r1, r0, #1
 147 0064 38BF     		it	cc
 148 0066 0021     		movcc	r1, #0
 149 0068 0420     		movs	r0, #4
 150              	.LVL7:
 151 006a FFF7FEFF 		bl	_test_assert
 152 006e 0028     		cmp	r0, #0
 153 0070 D4D1     		bne	.L4
 154              		.loc 1 289 0
 155 0072 0A21     		movs	r1, #10
 156 0074 4FF0FF30 		mov	r0, #-1
 157 0078 FFF7FEFF 		bl	chEvtWaitAnyTimeout
 158              	.LVL8:
 159              		.loc 1 290 0
 160 007c D0F10101 		rsbs	r1, r0, #1
 161 0080 38BF     		it	cc
 162 0082 0021     		movcc	r1, #0
 163 0084 0520     		movs	r0, #5
 164              	.LVL9:
ARM GAS  /tmp/ccxJpt1h.s 			page 4


 165 0086 FFF7FEFF 		bl	_test_assert
 166 008a 0028     		cmp	r0, #0
 167 008c C6D1     		bne	.L4
 168              		.loc 1 291 0
 169 008e 0A21     		movs	r1, #10
 170 0090 4FF0FF30 		mov	r0, #-1
 171 0094 FFF7FEFF 		bl	chEvtWaitAllTimeout
 172              	.LVL10:
 173              		.loc 1 292 0
 174 0098 D0F10101 		rsbs	r1, r0, #1
 175 009c 38BF     		it	cc
 176 009e 0021     		movcc	r1, #0
 177 00a0 0620     		movs	r0, #6
 178              	.LVL11:
 179 00a2 FFF7FEFF 		bl	_test_assert
 180 00a6 B9E7     		b	.L4
 181              		.cfi_endproc
 182              	.LFE18:
 183              		.size	evt3_execute, .-evt3_execute
 184 00a8 AFF30080 		.section	.text.evt3_setup,"ax",%progbits
 184      AFF30080 
 185              		.align	2
 186              		.p2align 4,,15
 187              		.thumb
 188              		.thumb_func
 189              		.type	evt3_setup, %function
 190              	evt3_setup:
 191              	.LFB17:
 192              		.loc 1 270 0
 193              		.cfi_startproc
 194              		@ args = 0, pretend = 0, frame = 0
 195              		@ frame_needed = 0, uses_anonymous_args = 0
 196 0000 00B5     		push	{lr}
 197              	.LCFI1:
 198              		.cfi_def_cfa_offset 4
 199              		.loc 1 272 0
 200 0002 4FF0FF30 		mov	r0, #-1
 201              		.cfi_offset 14, -4
 202 0006 FFF7FEFF 		bl	chEvtClear
 203              		.loc 1 273 0
 204 000a 00BD     		pop	{pc}
 205              		.cfi_endproc
 206              	.LFE17:
 207              		.size	evt3_setup, .-evt3_setup
 208              		.section	.text.evt2_setup,"ax",%progbits
 209              		.align	2
 210              		.p2align 4,,15
 211              		.thumb
 212              		.thumb_func
 213              		.type	evt2_setup, %function
 214              	evt2_setup:
 215              	.LFB12:
 216              		.loc 1 146 0
 217              		.cfi_startproc
 218              		@ args = 0, pretend = 0, frame = 0
 219              		@ frame_needed = 0, uses_anonymous_args = 0
 220 0000 00B5     		push	{lr}
ARM GAS  /tmp/ccxJpt1h.s 			page 5


 221              	.LCFI2:
 222              		.cfi_def_cfa_offset 4
 223              		.loc 1 148 0
 224 0002 4FF0FF30 		mov	r0, #-1
 225              		.cfi_offset 14, -4
 226 0006 FFF7FEFF 		bl	chEvtClear
 227              		.loc 1 149 0
 228 000a 00BD     		pop	{pc}
 229              		.cfi_endproc
 230              	.LFE12:
 231              		.size	evt2_setup, .-evt2_setup
 232              		.section	.text.evt1_setup,"ax",%progbits
 233              		.align	2
 234              		.p2align 4,,15
 235              		.thumb
 236              		.thumb_func
 237              		.type	evt1_setup, %function
 238              	evt1_setup:
 239              	.LFB6:
 240              		.loc 1 88 0
 241              		.cfi_startproc
 242              		@ args = 0, pretend = 0, frame = 0
 243              		@ frame_needed = 0, uses_anonymous_args = 0
 244 0000 00B5     		push	{lr}
 245              	.LCFI3:
 246              		.cfi_def_cfa_offset 4
 247              		.loc 1 90 0
 248 0002 4FF0FF30 		mov	r0, #-1
 249              		.cfi_offset 14, -4
 250 0006 FFF7FEFF 		bl	chEvtClear
 251              		.loc 1 91 0
 252 000a 00BD     		pop	{pc}
 253              		.cfi_endproc
 254              	.LFE6:
 255              		.size	evt1_setup, .-evt1_setup
 256              		.section	.text.evt2_execute,"ax",%progbits
 257              		.align	2
 258              		.p2align 4,,15
 259              		.thumb
 260              		.thumb_func
 261              		.type	evt2_execute, %function
 262              	evt2_execute:
 263              	.LFB15:
 264              		.loc 1 167 0
 265              		.cfi_startproc
 266              		@ args = 0, pretend = 0, frame = 24
 267              		@ frame_needed = 0, uses_anonymous_args = 0
 268 0000 2DE9F04F 		push	{r4, r5, r6, r7, r8, r9, sl, fp, lr}
 269              	.LCFI4:
 270              		.cfi_def_cfa_offset 36
 271              		.loc 1 175 0
 272 0004 0520     		movs	r0, #5
 273              		.loc 1 167 0
 274 0006 87B0     		sub	sp, sp, #28
 275              	.LCFI5:
 276              		.cfi_def_cfa_offset 64
 277              		.loc 1 175 0
ARM GAS  /tmp/ccxJpt1h.s 			page 6


 278              		.cfi_offset 14, -4
 279              		.cfi_offset 11, -8
 280              		.cfi_offset 10, -12
 281              		.cfi_offset 9, -16
 282              		.cfi_offset 8, -20
 283              		.cfi_offset 7, -24
 284              		.cfi_offset 6, -28
 285              		.cfi_offset 5, -32
 286              		.cfi_offset 4, -36
 287 0008 FFF7FEFF 		bl	chEvtPend
 288              		.loc 1 176 0
 289 000c 4FF0FF30 		mov	r0, #-1
 290 0010 FFF7FEFF 		bl	chEvtWaitOne
 291              	.LVL12:
 292              		.loc 1 177 0
 293 0014 0128     		cmp	r0, #1
 294 0016 14BF     		ite	ne
 295 0018 0021     		movne	r1, #0
 296 001a 0121     		moveq	r1, #1
 297 001c 0120     		movs	r0, #1
 298              	.LVL13:
 299 001e FFF7FEFF 		bl	_test_assert
 300 0022 10B1     		cbz	r0, .L13
 301              	.L11:
 302              		.loc 1 240 0
 303 0024 07B0     		add	sp, sp, #28
 304 0026 BDE8F08F 		pop	{r4, r5, r6, r7, r8, r9, sl, fp, pc}
 305              	.L13:
 306              		.loc 1 178 0
 307 002a 4FF0FF30 		mov	r0, #-1
 308 002e FFF7FEFF 		bl	chEvtWaitOne
 309              	.LVL14:
 310              		.loc 1 179 0
 311 0032 0428     		cmp	r0, #4
 312 0034 14BF     		ite	ne
 313 0036 0021     		movne	r1, #0
 314 0038 0121     		moveq	r1, #1
 315 003a 0220     		movs	r0, #2
 316              	.LVL15:
 317 003c FFF7FEFF 		bl	_test_assert
 318 0040 0028     		cmp	r0, #0
 319 0042 EFD1     		bne	.L11
 320              		.loc 1 180 0
 321 0044 4FF0FF30 		mov	r0, #-1
 322 0048 FFF7FEFF 		bl	chEvtClear
 323              	.LVL16:
 324              		.loc 1 181 0
 325 004c D0F10101 		rsbs	r1, r0, #1
 326 0050 38BF     		it	cc
 327 0052 0021     		movcc	r1, #0
 328 0054 0320     		movs	r0, #3
 329              	.LVL17:
 330 0056 FFF7FEFF 		bl	_test_assert
 331 005a 0028     		cmp	r0, #0
 332 005c E2D1     		bne	.L11
 333              		.loc 1 188 0
 334 005e 7C4F     		ldr	r7, .L14
ARM GAS  /tmp/ccxJpt1h.s 			page 7


 335              		.loc 1 186 0
 336 0060 FFF7FEFF 		bl	test_wait_tick
 337              		.loc 1 188 0
 338 0064 D7F810C0 		ldr	ip, [r7, #16]
 339 0068 7A4B     		ldr	r3, .L14+4
 340 006a DCF80820 		ldr	r2, [ip, #8]
 341 006e D3F80080 		ldr	r8, [r3, #0]
 342              		.loc 1 187 0
 343 0072 794E     		ldr	r6, .L14+8
 344              		.loc 1 188 0
 345 0074 013A     		subs	r2, r2, #1
 346 0076 4FF48271 		mov	r1, #260
 347 007a 784B     		ldr	r3, .L14+12
 348 007c 4046     		mov	r0, r8
 349              		.loc 1 187 0
 350 007e F468     		ldr	r4, [r6, #12]
 351              		.loc 1 188 0
 352 0080 CDF800C0 		str	ip, [sp, #0]
 353 0084 FFF7FEFF 		bl	chThdCreateStatic
 354 0088 754D     		ldr	r5, .L14+16
 355 008a 0346     		mov	r3, r0
 356              		.loc 1 190 0
 357 008c 4FF0FF30 		mov	r0, #-1
 358              		.loc 1 188 0
 359 0090 2B60     		str	r3, [r5, #0]
 360              		.loc 1 190 0
 361 0092 FFF7FEFF 		bl	chEvtWaitOne
 362              		.loc 1 187 0
 363 0096 04F13209 		add	r9, r4, #50
 364              	.LVL18:
 365              		.loc 1 190 0
 366 009a 8246     		mov	sl, r0
 367              	.LVL19:
 368              		.loc 1 191 0
 369 009c 04F13702 		add	r2, r4, #55
 370 00a0 0420     		movs	r0, #4
 371              	.LVL20:
 372 00a2 4946     		mov	r1, r9
 373 00a4 FFF7FEFF 		bl	_test_assert_time_window
 374 00a8 0028     		cmp	r0, #0
 375 00aa BBD1     		bne	.L11
 376              		.loc 1 192 0
 377 00ac BAF1010F 		cmp	sl, #1
 378 00b0 14BF     		ite	ne
 379 00b2 0021     		movne	r1, #0
 380 00b4 0121     		moveq	r1, #1
 381 00b6 0520     		movs	r0, #5
 382 00b8 FFF7FEFF 		bl	_test_assert
 383 00bc 0028     		cmp	r0, #0
 384 00be B1D1     		bne	.L11
 385              		.loc 1 193 0
 386 00c0 4FF0FF30 		mov	r0, #-1
 387 00c4 FFF7FEFF 		bl	chEvtClear
 388              	.LVL21:
 389              		.loc 1 194 0
 390 00c8 D0F10101 		rsbs	r1, r0, #1
 391 00cc 38BF     		it	cc
ARM GAS  /tmp/ccxJpt1h.s 			page 8


 392 00ce 0021     		movcc	r1, #0
 393 00d0 0620     		movs	r0, #6
 394              	.LVL22:
 395 00d2 FFF7FEFF 		bl	_test_assert
 396 00d6 0028     		cmp	r0, #0
 397 00d8 A4D1     		bne	.L11
 398              		.loc 1 195 0
 399 00da FFF7FEFF 		bl	test_wait_threads
 400              		.loc 1 200 0
 401 00de 0520     		movs	r0, #5
 402 00e0 FFF7FEFF 		bl	chEvtPend
 403              		.loc 1 201 0
 404 00e4 4FF0FF30 		mov	r0, #-1
 405 00e8 FFF7FEFF 		bl	chEvtWaitAny
 406              	.LVL23:
 407              		.loc 1 202 0
 408 00ec 0528     		cmp	r0, #5
 409 00ee 14BF     		ite	ne
 410 00f0 0021     		movne	r1, #0
 411 00f2 0121     		moveq	r1, #1
 412 00f4 0720     		movs	r0, #7
 413              	.LVL24:
 414 00f6 FFF7FEFF 		bl	_test_assert
 415 00fa 0028     		cmp	r0, #0
 416 00fc 92D1     		bne	.L11
 417              		.loc 1 203 0
 418 00fe 4FF0FF30 		mov	r0, #-1
 419 0102 FFF7FEFF 		bl	chEvtClear
 420              	.LVL25:
 421              		.loc 1 204 0
 422 0106 D0F10101 		rsbs	r1, r0, #1
 423 010a 38BF     		it	cc
 424 010c 0021     		movcc	r1, #0
 425 010e 0820     		movs	r0, #8
 426              	.LVL26:
 427 0110 FFF7FEFF 		bl	_test_assert
 428 0114 0028     		cmp	r0, #0
 429 0116 85D1     		bne	.L11
 430              		.loc 1 209 0
 431 0118 FFF7FEFF 		bl	test_wait_tick
 432              		.loc 1 211 0
 433 011c D7F810C0 		ldr	ip, [r7, #16]
 434 0120 4FF48271 		mov	r1, #260
 435 0124 DCF80820 		ldr	r2, [ip, #8]
 436 0128 4C4B     		ldr	r3, .L14+12
 437 012a 013A     		subs	r2, r2, #1
 438 012c 4046     		mov	r0, r8
 439              		.loc 1 210 0
 440 012e F468     		ldr	r4, [r6, #12]
 441              		.loc 1 211 0
 442 0130 CDF800C0 		str	ip, [sp, #0]
 443 0134 FFF7FEFF 		bl	chThdCreateStatic
 444 0138 0346     		mov	r3, r0
 445              		.loc 1 213 0
 446 013a 4FF0FF30 		mov	r0, #-1
 447              		.loc 1 211 0
 448 013e 2B60     		str	r3, [r5, #0]
ARM GAS  /tmp/ccxJpt1h.s 			page 9


 449              		.loc 1 213 0
 450 0140 FFF7FEFF 		bl	chEvtWaitAny
 451              		.loc 1 210 0
 452 0144 04F13209 		add	r9, r4, #50
 453              	.LVL27:
 454              		.loc 1 213 0
 455 0148 8246     		mov	sl, r0
 456              	.LVL28:
 457              		.loc 1 214 0
 458 014a 04F13702 		add	r2, r4, #55
 459 014e 0920     		movs	r0, #9
 460              	.LVL29:
 461 0150 4946     		mov	r1, r9
 462 0152 FFF7FEFF 		bl	_test_assert_time_window
 463 0156 0028     		cmp	r0, #0
 464 0158 7FF464AF 		bne	.L11
 465              		.loc 1 215 0
 466 015c BAF1010F 		cmp	sl, #1
 467 0160 14BF     		ite	ne
 468 0162 0021     		movne	r1, #0
 469 0164 0121     		moveq	r1, #1
 470 0166 0A30     		adds	r0, r0, #10
 471 0168 FFF7FEFF 		bl	_test_assert
 472 016c 0028     		cmp	r0, #0
 473 016e 7FF459AF 		bne	.L11
 474              		.loc 1 216 0
 475 0172 0138     		subs	r0, r0, #1
 476 0174 FFF7FEFF 		bl	chEvtClear
 477              	.LVL30:
 478              		.loc 1 217 0
 479 0178 D0F10101 		rsbs	r1, r0, #1
 480 017c 38BF     		it	cc
 481 017e 0021     		movcc	r1, #0
 482 0180 0B20     		movs	r0, #11
 483              	.LVL31:
 484 0182 FFF7FEFF 		bl	_test_assert
 485 0186 0028     		cmp	r0, #0
 486 0188 7FF44CAF 		bne	.L11
 487              		.loc 1 223 0
 488 018c 354C     		ldr	r4, .L14+20
 489              		.loc 1 224 0
 490 018e DFF8D8A0 		ldr	sl, .L14+24
 491              		.loc 1 225 0
 492 0192 0DF11009 		add	r9, sp, #16
 493              	.LVL32:
 494              		.loc 1 218 0
 495 0196 FFF7FEFF 		bl	test_wait_threads
 496              		.loc 1 226 0
 497 019a 0DF1040B 		add	fp, sp, #4
 498              		.loc 1 225 0
 499 019e 2046     		mov	r0, r4
 500 01a0 4946     		mov	r1, r9
 501 01a2 0122     		movs	r2, #1
 502              		.loc 1 223 0
 503 01a4 2460     		str	r4, [r4, #0]
 504              		.loc 1 224 0
 505 01a6 CAF800A0 		str	sl, [sl, #0]
ARM GAS  /tmp/ccxJpt1h.s 			page 10


 506              		.loc 1 225 0
 507 01aa FFF7FEFF 		bl	chEvtRegisterMask
 508              		.loc 1 226 0
 509 01ae 5946     		mov	r1, fp
 510 01b0 0422     		movs	r2, #4
 511 01b2 5046     		mov	r0, sl
 512 01b4 FFF7FEFF 		bl	chEvtRegisterMask
 513              		.loc 1 227 0
 514 01b8 FFF7FEFF 		bl	test_wait_tick
 515              		.loc 1 229 0
 516 01bc 3B69     		ldr	r3, [r7, #16]
 517 01be DFF8ACC0 		ldr	ip, .L14+28
 518 01c2 9A68     		ldr	r2, [r3, #8]
 519 01c4 4FF48271 		mov	r1, #260
 520 01c8 013A     		subs	r2, r2, #1
 521 01ca 294B     		ldr	r3, .L14+32
 522 01cc 4046     		mov	r0, r8
 523              		.loc 1 228 0
 524 01ce F668     		ldr	r6, [r6, #12]
 525              		.loc 1 229 0
 526 01d0 CDF800C0 		str	ip, [sp, #0]
 527 01d4 FFF7FEFF 		bl	chThdCreateStatic
 528              		.loc 1 228 0
 529 01d8 06F13207 		add	r7, r6, #50
 530              	.LVL33:
 531              		.loc 1 229 0
 532 01dc 0346     		mov	r3, r0
 533              		.loc 1 231 0
 534 01de 0520     		movs	r0, #5
 535              		.loc 1 229 0
 536 01e0 2B60     		str	r3, [r5, #0]
 537              		.loc 1 231 0
 538 01e2 FFF7FEFF 		bl	chEvtWaitAll
 539              		.loc 1 232 0
 540 01e6 06F13702 		add	r2, r6, #55
 541 01ea 0C20     		movs	r0, #12
 542 01ec 3946     		mov	r1, r7
 543 01ee FFF7FEFF 		bl	_test_assert_time_window
 544 01f2 0028     		cmp	r0, #0
 545 01f4 7FF416AF 		bne	.L11
 546              		.loc 1 233 0
 547 01f8 0138     		subs	r0, r0, #1
 548 01fa FFF7FEFF 		bl	chEvtClear
 549              	.LVL34:
 550              		.loc 1 234 0
 551 01fe D0F10101 		rsbs	r1, r0, #1
 552 0202 38BF     		it	cc
 553 0204 0021     		movcc	r1, #0
 554 0206 0D20     		movs	r0, #13
 555              	.LVL35:
 556 0208 FFF7FEFF 		bl	_test_assert
 557 020c 0028     		cmp	r0, #0
 558 020e 7FF409AF 		bne	.L11
 559              		.loc 1 235 0
 560 0212 FFF7FEFF 		bl	test_wait_threads
 561              		.loc 1 236 0
 562 0216 2046     		mov	r0, r4
ARM GAS  /tmp/ccxJpt1h.s 			page 11


 563 0218 4946     		mov	r1, r9
 564 021a FFF7FEFF 		bl	chEvtUnregister
 565              		.loc 1 237 0
 566 021e 5046     		mov	r0, sl
 567 0220 5946     		mov	r1, fp
 568 0222 FFF7FEFF 		bl	chEvtUnregister
 569              		.loc 1 238 0
 570 0226 2168     		ldr	r1, [r4, #0]
 571 0228 0E20     		movs	r0, #14
 572 022a A142     		cmp	r1, r4
 573 022c 14BF     		ite	ne
 574 022e 0021     		movne	r1, #0
 575 0230 0121     		moveq	r1, #1
 576 0232 FFF7FEFF 		bl	_test_assert
 577 0236 0028     		cmp	r0, #0
 578 0238 7FF4F4AE 		bne	.L11
 579              		.loc 1 239 0
 580 023c DAF80010 		ldr	r1, [sl, #0]
 581 0240 0F30     		adds	r0, r0, #15
 582 0242 5145     		cmp	r1, sl
 583 0244 14BF     		ite	ne
 584 0246 0021     		movne	r1, #0
 585 0248 0121     		moveq	r1, #1
 586 024a FFF7FEFF 		bl	_test_assert
 587 024e E9E6     		b	.L11
 588              	.L15:
 589              		.align	2
 590              	.L14:
 591 0250 00000000 		.word	rlist
 592 0254 00000000 		.word	wa
 593 0258 00000000 		.word	vtlist
 594 025c 00000000 		.word	thread1
 595 0260 00000000 		.word	threads
 596 0264 00000000 		.word	.LANCHOR0
 597 0268 00000000 		.word	.LANCHOR1
 598 026c 54000000 		.word	.LC3
 599 0270 00000000 		.word	thread2
 600              		.cfi_endproc
 601              	.LFE15:
 602              		.size	evt2_execute, .-evt2_execute
 603 0274 AFF30080 		.section	.text.thread2,"ax",%progbits
 603      AFF30080 
 603      AFF30080 
 604              		.align	2
 605              		.p2align 4,,15
 606              		.thumb
 607              		.thumb_func
 608              		.type	thread2, %function
 609              	thread2:
 610              	.LFB14:
 611              		.loc 1 158 0
 612              		.cfi_startproc
 613              		@ args = 0, pretend = 0, frame = 0
 614              		@ frame_needed = 0, uses_anonymous_args = 0
 615              	.LVL36:
 616              		.loc 1 161 0
 617 0000 40F20000 		movw	r0, #:lower16:.LANCHOR0
ARM GAS  /tmp/ccxJpt1h.s 			page 12


 618              	.LVL37:
 619              		.loc 1 158 0
 620 0004 00B5     		push	{lr}
 621              	.LCFI6:
 622              		.cfi_def_cfa_offset 4
 623              		.loc 1 161 0
 624 0006 C0F20000 		movt	r0, #:upper16:.LANCHOR0
 625              		.cfi_offset 14, -4
 626 000a FFF7FEFF 		bl	chEvtBroadcast
 627              		.loc 1 162 0
 628 000e 3220     		movs	r0, #50
 629 0010 FFF7FEFF 		bl	chThdSleep
 630              		.loc 1 163 0
 631 0014 40F20000 		movw	r0, #:lower16:.LANCHOR1
 632 0018 C0F20000 		movt	r0, #:upper16:.LANCHOR1
 633 001c FFF7FEFF 		bl	chEvtBroadcast
 634              		.loc 1 165 0
 635 0020 0020     		movs	r0, #0
 636 0022 00BD     		pop	{pc}
 637              		.cfi_endproc
 638              	.LFE14:
 639              		.size	thread2, .-thread2
 640 0024 AFF30080 		.section	.text.thread1,"ax",%progbits
 640      AFF30080 
 640      AFF30080 
 641              		.align	2
 642              		.p2align 4,,15
 643              		.thumb
 644              		.thumb_func
 645              		.type	thread1, %function
 646              	thread1:
 647              	.LFB13:
 648              		.loc 1 151 0
 649              		.cfi_startproc
 650              		@ args = 0, pretend = 0, frame = 0
 651              		@ frame_needed = 0, uses_anonymous_args = 0
 652              	.LVL38:
 653 0000 10B5     		push	{r4, lr}
 654              	.LCFI7:
 655              		.cfi_def_cfa_offset 8
 656              		.loc 1 151 0
 657 0002 0446     		mov	r4, r0
 658              		.cfi_offset 14, -4
 659              		.cfi_offset 4, -8
 660              		.loc 1 153 0
 661 0004 3220     		movs	r0, #50
 662              	.LVL39:
 663 0006 FFF7FEFF 		bl	chThdSleep
 664              		.loc 1 154 0
 665 000a 2046     		mov	r0, r4
 666 000c 0121     		movs	r1, #1
 667 000e FFF7FEFF 		bl	chEvtSignal
 668              		.loc 1 156 0
 669 0012 0020     		movs	r0, #0
 670 0014 10BD     		pop	{r4, pc}
 671              		.cfi_endproc
 672              	.LFE13:
ARM GAS  /tmp/ccxJpt1h.s 			page 13


 673              		.size	thread1, .-thread1
 674 0016 00BFAFF3 		.section	.text.evt1_execute,"ax",%progbits
 674      0080AFF3 
 674      0080
 675              		.align	2
 676              		.p2align 4,,15
 677              		.thumb
 678              		.thumb_func
 679              		.type	evt1_execute, %function
 680              	evt1_execute:
 681              	.LFB10:
 682              		.loc 1 98 0
 683              		.cfi_startproc
 684              		@ args = 0, pretend = 0, frame = 24
 685              		@ frame_needed = 0, uses_anonymous_args = 0
 686 0000 70B5     		push	{r4, r5, r6, lr}
 687              	.LCFI8:
 688              		.cfi_def_cfa_offset 16
 689              		.loc 1 104 0
 690 0002 1E4C     		ldr	r4, .L21
 691              		.cfi_offset 14, -4
 692              		.cfi_offset 6, -8
 693              		.cfi_offset 5, -12
 694              		.cfi_offset 4, -16
 695              		.loc 1 98 0
 696 0004 86B0     		sub	sp, sp, #24
 697              	.LCFI9:
 698              		.cfi_def_cfa_offset 40
 699              		.loc 1 105 0
 700 0006 03AD     		add	r5, sp, #12
 701 0008 2046     		mov	r0, r4
 702 000a 2946     		mov	r1, r5
 703 000c 0122     		movs	r2, #1
 704              		.loc 1 104 0
 705 000e 2460     		str	r4, [r4, #0]
 706              		.loc 1 105 0
 707 0010 FFF7FEFF 		bl	chEvtRegisterMask
 708              		.loc 1 106 0
 709 0014 2046     		mov	r0, r4
 710 0016 6946     		mov	r1, sp
 711 0018 0222     		movs	r2, #2
 712 001a FFF7FEFF 		bl	chEvtRegisterMask
 713              		.loc 1 107 0
 714 001e 2168     		ldr	r1, [r4, #0]
 715 0020 0120     		movs	r0, #1
 716 0022 091B     		subs	r1, r1, r4
 717 0024 18BF     		it	ne
 718 0026 0121     		movne	r1, #1
 719              		.loc 1 106 0
 720 0028 6E46     		mov	r6, sp
 721              		.loc 1 107 0
 722 002a FFF7FEFF 		bl	_test_assert
 723 002e 08B1     		cbz	r0, .L20
 724              	.L18:
 725              		.loc 1 118 0
 726 0030 06B0     		add	sp, sp, #24
 727 0032 70BD     		pop	{r4, r5, r6, pc}
ARM GAS  /tmp/ccxJpt1h.s 			page 14


 728              	.L20:
 729              		.loc 1 108 0
 730 0034 2046     		mov	r0, r4
 731 0036 2946     		mov	r1, r5
 732 0038 FFF7FEFF 		bl	chEvtUnregister
 733              		.loc 1 109 0
 734 003c 2168     		ldr	r1, [r4, #0]
 735 003e 0220     		movs	r0, #2
 736 0040 091B     		subs	r1, r1, r4
 737 0042 18BF     		it	ne
 738 0044 0121     		movne	r1, #1
 739 0046 FFF7FEFF 		bl	_test_assert
 740 004a 0028     		cmp	r0, #0
 741 004c F0D1     		bne	.L18
 742              		.loc 1 110 0
 743 004e 2046     		mov	r0, r4
 744 0050 6946     		mov	r1, sp
 745 0052 FFF7FEFF 		bl	chEvtUnregister
 746              		.loc 1 111 0
 747 0056 2168     		ldr	r1, [r4, #0]
 748 0058 0320     		movs	r0, #3
 749 005a A142     		cmp	r1, r4
 750 005c 14BF     		ite	ne
 751 005e 0021     		movne	r1, #0
 752 0060 0121     		moveq	r1, #1
 753 0062 FFF7FEFF 		bl	_test_assert
 754 0066 0028     		cmp	r0, #0
 755 0068 E2D1     		bne	.L18
 756              		.loc 1 116 0
 757 006a 0721     		movs	r1, #7
 758 006c 0448     		ldr	r0, .L21+4
 759 006e FFF7FEFF 		bl	chEvtDispatch
 760              		.loc 1 117 0
 761 0072 0420     		movs	r0, #4
 762 0074 0349     		ldr	r1, .L21+8
 763 0076 FFF7FEFF 		bl	_test_assert_sequence
 764 007a D9E7     		b	.L18
 765              	.L22:
 766              		.align	2
 767              	.L21:
 768 007c 00000000 		.word	.LANCHOR0
 769 0080 00000000 		.word	.LANCHOR2
 770 0084 58000000 		.word	.LC4
 771              		.cfi_endproc
 772              	.LFE10:
 773              		.size	evt1_execute, .-evt1_execute
 774 0088 AFF30080 		.section	.text.h3,"ax",%progbits
 774      AFF30080 
 775              		.align	2
 776              		.p2align 4,,15
 777              		.thumb
 778              		.thumb_func
 779              		.type	h3, %function
 780              	h3:
 781              	.LFB9:
 782              		.loc 1 95 0
 783              		.cfi_startproc
ARM GAS  /tmp/ccxJpt1h.s 			page 15


 784              		@ args = 0, pretend = 0, frame = 0
 785              		@ frame_needed = 0, uses_anonymous_args = 0
 786              	.LVL40:
 787 0000 00B5     		push	{lr}
 788              	.LCFI10:
 789              		.cfi_def_cfa_offset 4
 790              		.loc 1 95 0
 791 0002 4320     		movs	r0, #67
 792              	.LVL41:
 793              		.cfi_offset 14, -4
 794 0004 FFF7FEFF 		bl	test_emit_token
 795 0008 00BD     		pop	{pc}
 796              		.cfi_endproc
 797              	.LFE9:
 798              		.size	h3, .-h3
 799 000a 00BFAFF3 		.section	.text.h2,"ax",%progbits
 799      0080
 800              		.align	2
 801              		.p2align 4,,15
 802              		.thumb
 803              		.thumb_func
 804              		.type	h2, %function
 805              	h2:
 806              	.LFB8:
 807              		.loc 1 94 0
 808              		.cfi_startproc
 809              		@ args = 0, pretend = 0, frame = 0
 810              		@ frame_needed = 0, uses_anonymous_args = 0
 811              	.LVL42:
 812 0000 00B5     		push	{lr}
 813              	.LCFI11:
 814              		.cfi_def_cfa_offset 4
 815              		.loc 1 94 0
 816 0002 4220     		movs	r0, #66
 817              	.LVL43:
 818              		.cfi_offset 14, -4
 819 0004 FFF7FEFF 		bl	test_emit_token
 820 0008 00BD     		pop	{pc}
 821              		.cfi_endproc
 822              	.LFE8:
 823              		.size	h2, .-h2
 824 000a 00BFAFF3 		.section	.text.h1,"ax",%progbits
 824      0080
 825              		.align	2
 826              		.p2align 4,,15
 827              		.thumb
 828              		.thumb_func
 829              		.type	h1, %function
 830              	h1:
 831              	.LFB7:
 832              		.loc 1 93 0
 833              		.cfi_startproc
 834              		@ args = 0, pretend = 0, frame = 0
 835              		@ frame_needed = 0, uses_anonymous_args = 0
 836              	.LVL44:
 837 0000 00B5     		push	{lr}
 838              	.LCFI12:
ARM GAS  /tmp/ccxJpt1h.s 			page 16


 839              		.cfi_def_cfa_offset 4
 840              		.loc 1 93 0
 841 0002 4120     		movs	r0, #65
 842              	.LVL45:
 843              		.cfi_offset 14, -4
 844 0004 FFF7FEFF 		bl	test_emit_token
 845 0008 00BD     		pop	{pc}
 846              		.cfi_endproc
 847              	.LFE7:
 848              		.size	h1, .-h1
 849              		.global	testevt1
 850              		.global	testevt2
 851              		.global	testevt3
 852              		.global	patternevt
 853 000a 00BFAFF3 		.section	.rodata.patternevt,"a",%progbits
 853      0080
 854              		.align	2
 855              		.type	patternevt, %object
 856              		.size	patternevt, 16
 857              	patternevt:
 858 0000 00000000 		.word	testevt1
 859 0004 00000000 		.word	testevt2
 860 0008 00000000 		.word	testevt3
 861 000c 00000000 		.word	0
 862              		.section	.rodata.testevt2,"a",%progbits
 863              		.align	2
 864              		.type	testevt2, %object
 865              		.size	testevt2, 16
 866              	testevt2:
 867 0000 00000000 		.word	evt2_gettest
 868 0004 00000000 		.word	evt2_setup
 869 0008 00000000 		.word	0
 870 000c 00000000 		.word	evt2_execute
 871              		.section	.rodata.str1.4,"aMS",%progbits,1
 872              		.align	2
 873              	.LC0:
 874 0000 4576656E 		.ascii	"Events, registration and dispatch\000"
 874      74732C20 
 874      72656769 
 874      73747261 
 874      74696F6E 
 875 0022 0000     		.space	2
 876              	.LC1:
 877 0024 4576656E 		.ascii	"Events, wait and broadcast\000"
 877      74732C20 
 877      77616974 
 877      20616E64 
 877      2062726F 
 878 003f 00       		.space	1
 879              	.LC2:
 880 0040 4576656E 		.ascii	"Events, timeouts\000"
 880      74732C20 
 880      74696D65 
 880      6F757473 
 880      00
 881 0051 000000   		.space	3
 882              	.LC3:
ARM GAS  /tmp/ccxJpt1h.s 			page 17


 883 0054 4100     		.ascii	"A\000"
 884 0056 0000     		.space	2
 885              	.LC4:
 886 0058 41424300 		.ascii	"ABC\000"
 887              		.section	.rodata.testevt1,"a",%progbits
 888              		.align	2
 889              		.type	testevt1, %object
 890              		.size	testevt1, 16
 891              	testevt1:
 892 0000 00000000 		.word	evt1_gettest
 893 0004 00000000 		.word	evt1_setup
 894 0008 00000000 		.word	0
 895 000c 00000000 		.word	evt1_execute
 896              		.section	.rodata.evhndl,"a",%progbits
 897              		.align	2
 898              		.set	.LANCHOR2,. + 0
 899              		.type	evhndl, %object
 900              		.size	evhndl, 12
 901              	evhndl:
 902 0000 00000000 		.word	h1
 903 0004 00000000 		.word	h2
 904 0008 00000000 		.word	h3
 905              		.section	.rodata.testevt3,"a",%progbits
 906              		.align	2
 907              		.type	testevt3, %object
 908              		.size	testevt3, 16
 909              	testevt3:
 910 0000 00000000 		.word	evt3_gettest
 911 0004 00000000 		.word	evt3_setup
 912 0008 00000000 		.word	0
 913 000c 00000000 		.word	evt3_execute
 914              		.section	.data.es1,"aw",%progbits
 915              		.align	2
 916              		.set	.LANCHOR0,. + 0
 917              		.type	es1, %object
 918              		.size	es1, 4
 919              	es1:
 920 0000 00000000 		.word	es1
 921              		.section	.data.es2,"aw",%progbits
 922              		.align	2
 923              		.set	.LANCHOR1,. + 0
 924              		.type	es2, %object
 925              		.size	es2, 4
 926              	es2:
 927 0000 00000000 		.word	es2
 928              		.text
 929              	.Letext0:
