ARM GAS  /tmp/cc1IsS09.s 			page 1


   1              		.syntax unified
   2              		.thumb
   3              		.file	"testmbox.c"
   4              		.section	.debug_abbrev,"",%progbits
   5              	.Ldebug_abbrev0:
   6              		.section	.debug_info,"",%progbits
   7              	.Ldebug_info0:
   8              		.section	.debug_line,"",%progbits
   9              	.Ldebug_line0:
  10 0000 A8010000 		.text
  10      02004101 
  10      00000201 
  10      FB0E0D00 
  10      01010101 
  11              	.Ltext0:
  12              		.cfi_sections	.debug_frame
  13              		.section	.text.mbox1_gettest,"ax",%progbits
  14              		.align	2
  15              		.p2align 4,,15
  16              		.thumb
  17              		.thumb_func
  18              		.type	mbox1_gettest, %function
  19              	mbox1_gettest:
  20              	.LFB5:
  21              		.file 1 "chibios/test/testmbox.c"
  22              		.loc 1 79 0
  23              		.cfi_startproc
  24              		@ args = 0, pretend = 0, frame = 0
  25              		@ frame_needed = 0, uses_anonymous_args = 0
  26              		@ link register save eliminated.
  27              		.loc 1 79 0
  28 0000 40F20000 		movw	r0, #:lower16:.LC0
  29 0004 C0F20000 		movt	r0, #:upper16:.LC0
  30              		.loc 1 82 0
  31 0008 7047     		bx	lr
  32              		.cfi_endproc
  33              	.LFE5:
  34              		.size	mbox1_gettest, .-mbox1_gettest
  35 000a 00BFAFF3 		.section	.text.mbox1_execute,"ax",%progbits
  35      0080
  36              		.align	2
  37              		.p2align 4,,15
  38              		.thumb
  39              		.thumb_func
  40              		.type	mbox1_execute, %function
  41              	mbox1_execute:
  42              	.LFB7:
  43              		.loc 1 89 0
  44              		.cfi_startproc
  45              		@ args = 0, pretend = 0, frame = 4
  46              		@ frame_needed = 0, uses_anonymous_args = 0
  47 0000 F0B5     		push	{r4, r5, r6, r7, lr}
  48              	.LCFI0:
  49              		.cfi_def_cfa_offset 20
  50              		.loc 1 96 0
  51 0002 864E     		ldr	r6, .L10
  52              		.cfi_offset 14, -4
ARM GAS  /tmp/cc1IsS09.s 			page 2


  53              		.cfi_offset 7, -8
  54              		.cfi_offset 6, -12
  55              		.cfi_offset 5, -16
  56              		.cfi_offset 4, -20
  57              		.loc 1 89 0
  58 0004 81B0     		sub	sp, sp, #4
  59              	.LCFI1:
  60              		.cfi_def_cfa_offset 24
  61              		.loc 1 96 0
  62 0006 716A     		ldr	r1, [r6, #36]
  63 0008 0120     		movs	r0, #1
  64 000a 0529     		cmp	r1, #5
  65 000c 14BF     		ite	ne
  66 000e 0021     		movne	r1, #0
  67 0010 0121     		moveq	r1, #1
  68 0012 FFF7FEFF 		bl	_test_assert
  69 0016 F0B9     		cbnz	r0, .L2
  70 0018 4224     		movs	r4, #66
  71              	.L4:
  72              		.loc 1 102 0
  73 001a 804D     		ldr	r5, .L10
  74 001c 2146     		mov	r1, r4
  75 001e 0022     		movs	r2, #0
  76 0020 2846     		mov	r0, r5
  77 0022 FFF7FEFF 		bl	chMBPost
  78              	.LVL0:
  79              		.loc 1 103 0
  80 0026 D0F10101 		rsbs	r1, r0, #1
  81 002a 38BF     		it	cc
  82 002c 0021     		movcc	r1, #0
  83 002e 0220     		movs	r0, #2
  84              	.LVL1:
  85 0030 0134     		adds	r4, r4, #1
  86 0032 FFF7FEFF 		bl	_test_assert
  87 0036 70B9     		cbnz	r0, .L2
  88              		.loc 1 101 0
  89 0038 462C     		cmp	r4, #70
  90 003a EED1     		bne	.L4
  91              		.loc 1 105 0
  92 003c 4121     		movs	r1, #65
  93 003e 0246     		mov	r2, r0
  94 0040 2846     		mov	r0, r5
  95 0042 FFF7FEFF 		bl	chMBPostAhead
  96              	.LVL2:
  97              		.loc 1 106 0
  98 0046 D0F10101 		rsbs	r1, r0, #1
  99 004a 38BF     		it	cc
 100 004c 0021     		movcc	r1, #0
 101 004e 0320     		movs	r0, #3
 102              	.LVL3:
 103 0050 FFF7FEFF 		bl	_test_assert
 104 0054 08B1     		cbz	r0, .L9
 105              	.LVL4:
 106              	.L2:
 107              		.loc 1 166 0
 108 0056 01B0     		add	sp, sp, #4
 109 0058 F0BD     		pop	{r4, r5, r6, r7, pc}
ARM GAS  /tmp/cc1IsS09.s 			page 3


 110              	.L9:
 111              		.loc 1 111 0
 112 005a 5821     		movs	r1, #88
 113 005c 0122     		movs	r2, #1
 114 005e 2846     		mov	r0, r5
 115 0060 FFF7FEFF 		bl	chMBPost
 116              	.LVL5:
 117              		.loc 1 112 0
 118 0064 B0F1FF3F 		cmp	r0, #-1
 119 0068 14BF     		ite	ne
 120 006a 0021     		movne	r1, #0
 121 006c 0121     		moveq	r1, #1
 122 006e 0420     		movs	r0, #4
 123              	.LVL6:
 124 0070 FFF7FEFF 		bl	_test_assert
 125 0074 0028     		cmp	r0, #0
 126 0076 EED1     		bne	.L2
 127              		.loc 1 117 0
 128 0078 696A     		ldr	r1, [r5, #36]
 129 007a 0520     		movs	r0, #5
 130 007c D1F10101 		rsbs	r1, r1, #1
 131 0080 38BF     		it	cc
 132 0082 0021     		movcc	r1, #0
 133 0084 FFF7FEFF 		bl	_test_assert
 134 0088 0028     		cmp	r0, #0
 135 008a E4D1     		bne	.L2
 136              		.loc 1 118 0
 137 008c A969     		ldr	r1, [r5, #24]
 138 008e 0620     		movs	r0, #6
 139 0090 0529     		cmp	r1, #5
 140 0092 14BF     		ite	ne
 141 0094 0021     		movne	r1, #0
 142 0096 0121     		moveq	r1, #1
 143 0098 FFF7FEFF 		bl	_test_assert
 144 009c 0028     		cmp	r0, #0
 145 009e DAD1     		bne	.L2
 146              		.loc 1 119 0
 147 00a0 E968     		ldr	r1, [r5, #12]
 148 00a2 AB68     		ldr	r3, [r5, #8]
 149 00a4 0720     		movs	r0, #7
 150 00a6 9942     		cmp	r1, r3
 151 00a8 14BF     		ite	ne
 152 00aa 0021     		movne	r1, #0
 153 00ac 0121     		moveq	r1, #1
 154 00ae FFF7FEFF 		bl	_test_assert
 155 00b2 0028     		cmp	r0, #0
 156 00b4 CFD1     		bne	.L2
 157 00b6 0446     		mov	r4, r0
 158 00b8 6F46     		mov	r7, sp
 159              	.L5:
 160              		.loc 1 125 0
 161 00ba 584D     		ldr	r5, .L10
 162 00bc 6946     		mov	r1, sp
 163 00be 0022     		movs	r2, #0
 164 00c0 2846     		mov	r0, r5
 165 00c2 FFF7FEFF 		bl	chMBFetch
 166              	.LVL7:
ARM GAS  /tmp/cc1IsS09.s 			page 4


 167              		.loc 1 126 0
 168 00c6 D0F10101 		rsbs	r1, r0, #1
 169 00ca 38BF     		it	cc
 170 00cc 0021     		movcc	r1, #0
 171 00ce 0820     		movs	r0, #8
 172              	.LVL8:
 173              		.loc 1 124 0
 174 00d0 0134     		adds	r4, r4, #1
 175              		.loc 1 126 0
 176 00d2 FFF7FEFF 		bl	_test_assert
 177 00d6 0028     		cmp	r0, #0
 178 00d8 BDD1     		bne	.L2
 179              	.LVL9:
 180              		.loc 1 127 0
 181 00da 9DF80000 		ldrb	r0, [sp, #0]	@ zero_extendqisi2
 182 00de FFF7FEFF 		bl	test_emit_token
 183              	.LVL10:
 184              		.loc 1 124 0
 185 00e2 052C     		cmp	r4, #5
 186 00e4 E9D1     		bne	.L5
 187              		.loc 1 129 0
 188 00e6 0920     		movs	r0, #9
 189 00e8 4D49     		ldr	r1, .L10+4
 190 00ea FFF7FEFF 		bl	_test_assert_sequence
 191 00ee 0028     		cmp	r0, #0
 192 00f0 B1D1     		bne	.L2
 193              		.loc 1 134 0
 194 00f2 0246     		mov	r2, r0
 195 00f4 4721     		movs	r1, #71
 196 00f6 2846     		mov	r0, r5
 197 00f8 FFF7FEFF 		bl	chMBPost
 198              	.LVL11:
 199              		.loc 1 135 0
 200 00fc D0F10101 		rsbs	r1, r0, #1
 201 0100 38BF     		it	cc
 202 0102 0021     		movcc	r1, #0
 203 0104 0A20     		movs	r0, #10
 204              	.LVL12:
 205 0106 FFF7FEFF 		bl	_test_assert
 206 010a 0246     		mov	r2, r0
 207 010c 0028     		cmp	r0, #0
 208 010e A2D1     		bne	.L2
 209              		.loc 1 136 0
 210 0110 6946     		mov	r1, sp
 211 0112 2846     		mov	r0, r5
 212 0114 FFF7FEFF 		bl	chMBFetch
 213              	.LVL13:
 214              		.loc 1 137 0
 215 0118 D0F10101 		rsbs	r1, r0, #1
 216 011c 38BF     		it	cc
 217 011e 0021     		movcc	r1, #0
 218 0120 0B20     		movs	r0, #11
 219              	.LVL14:
 220 0122 FFF7FEFF 		bl	_test_assert
 221 0126 0028     		cmp	r0, #0
 222 0128 95D1     		bne	.L2
 223              		.loc 1 138 0
ARM GAS  /tmp/cc1IsS09.s 			page 5


 224 012a 2968     		ldr	r1, [r5, #0]
 225 012c AB68     		ldr	r3, [r5, #8]
 226 012e 0C30     		adds	r0, r0, #12
 227 0130 9942     		cmp	r1, r3
 228 0132 14BF     		ite	ne
 229 0134 0021     		movne	r1, #0
 230 0136 0121     		moveq	r1, #1
 231 0138 FFF7FEFF 		bl	_test_assert
 232 013c 0028     		cmp	r0, #0
 233 013e 8AD1     		bne	.L2
 234              		.loc 1 139 0
 235 0140 2968     		ldr	r1, [r5, #0]
 236 0142 EB68     		ldr	r3, [r5, #12]
 237 0144 0D30     		adds	r0, r0, #13
 238 0146 9942     		cmp	r1, r3
 239 0148 14BF     		ite	ne
 240 014a 0021     		movne	r1, #0
 241 014c 0121     		moveq	r1, #1
 242 014e FFF7FEFF 		bl	_test_assert
 243 0152 0028     		cmp	r0, #0
 244 0154 7FF47FAF 		bne	.L2
 245              		.loc 1 144 0
 246 0158 6946     		mov	r1, sp
 247 015a 0122     		movs	r2, #1
 248 015c 2846     		mov	r0, r5
 249 015e FFF7FEFF 		bl	chMBFetch
 250              	.LVL15:
 251              		.loc 1 145 0
 252 0162 B0F1FF3F 		cmp	r0, #-1
 253 0166 14BF     		ite	ne
 254 0168 0021     		movne	r1, #0
 255 016a 0121     		moveq	r1, #1
 256 016c 0E20     		movs	r0, #14
 257              	.LVL16:
 258 016e FFF7FEFF 		bl	_test_assert
 259 0172 0028     		cmp	r0, #0
 260 0174 7FF46FAF 		bne	.L2
 261              		.loc 1 150 0
 262 0178 696A     		ldr	r1, [r5, #36]
 263 017a 0F30     		adds	r0, r0, #15
 264 017c 0529     		cmp	r1, #5
 265 017e 14BF     		ite	ne
 266 0180 0021     		movne	r1, #0
 267 0182 0121     		moveq	r1, #1
 268 0184 FFF7FEFF 		bl	_test_assert
 269 0188 0028     		cmp	r0, #0
 270 018a 7FF464AF 		bne	.L2
 271              		.loc 1 151 0
 272 018e A969     		ldr	r1, [r5, #24]
 273 0190 1030     		adds	r0, r0, #16
 274 0192 D1F10101 		rsbs	r1, r1, #1
 275 0196 38BF     		it	cc
 276 0198 0021     		movcc	r1, #0
 277 019a FFF7FEFF 		bl	_test_assert
 278 019e 0028     		cmp	r0, #0
 279 01a0 7FF459AF 		bne	.L2
 280              		.loc 1 152 0
ARM GAS  /tmp/cc1IsS09.s 			page 6


 281 01a4 F168     		ldr	r1, [r6, #12]
 282 01a6 B368     		ldr	r3, [r6, #8]
 283 01a8 1130     		adds	r0, r0, #17
 284 01aa 9942     		cmp	r1, r3
 285 01ac 14BF     		ite	ne
 286 01ae 0021     		movne	r1, #0
 287 01b0 0121     		moveq	r1, #1
 288 01b2 FFF7FEFF 		bl	_test_assert
 289 01b6 2C46     		mov	r4, r5
 290              	.LVL17:
 291 01b8 0028     		cmp	r0, #0
 292 01ba 7FF44CAF 		bne	.L2
 293              		.loc 1 157 0
 294 01be 2846     		mov	r0, r5
 295 01c0 FFF7FEFF 		bl	chMBReset
 296              		.loc 1 162 0
 297 01c4 696A     		ldr	r1, [r5, #36]
 298 01c6 1220     		movs	r0, #18
 299 01c8 0529     		cmp	r1, #5
 300 01ca 14BF     		ite	ne
 301 01cc 0021     		movne	r1, #0
 302 01ce 0121     		moveq	r1, #1
 303 01d0 FFF7FEFF 		bl	_test_assert
 304 01d4 0028     		cmp	r0, #0
 305 01d6 7FF43EAF 		bne	.L2
 306              		.loc 1 163 0
 307 01da A969     		ldr	r1, [r5, #24]
 308 01dc 1330     		adds	r0, r0, #19
 309 01de D1F10101 		rsbs	r1, r1, #1
 310 01e2 38BF     		it	cc
 311 01e4 0021     		movcc	r1, #0
 312 01e6 FFF7FEFF 		bl	_test_assert
 313 01ea 0028     		cmp	r0, #0
 314 01ec 7FF433AF 		bne	.L2
 315              		.loc 1 164 0
 316 01f0 2968     		ldr	r1, [r5, #0]
 317 01f2 AB68     		ldr	r3, [r5, #8]
 318 01f4 1430     		adds	r0, r0, #20
 319 01f6 9942     		cmp	r1, r3
 320 01f8 14BF     		ite	ne
 321 01fa 0021     		movne	r1, #0
 322 01fc 0121     		moveq	r1, #1
 323 01fe FFF7FEFF 		bl	_test_assert
 324 0202 0028     		cmp	r0, #0
 325 0204 7FF427AF 		bne	.L2
 326              		.loc 1 165 0
 327 0208 2968     		ldr	r1, [r5, #0]
 328 020a EB68     		ldr	r3, [r5, #12]
 329 020c 1530     		adds	r0, r0, #21
 330 020e 9942     		cmp	r1, r3
 331 0210 14BF     		ite	ne
 332 0212 0021     		movne	r1, #0
 333 0214 0121     		moveq	r1, #1
 334 0216 FFF7FEFF 		bl	_test_assert
 335 021a 1CE7     		b	.L2
 336              	.L11:
 337              		.align	2
ARM GAS  /tmp/cc1IsS09.s 			page 7


 338              	.L10:
 339 021c 00000000 		.word	.LANCHOR0
 340 0220 20000000 		.word	.LC1
 341              		.cfi_endproc
 342              	.LFE7:
 343              		.size	mbox1_execute, .-mbox1_execute
 344 0224 AFF30080 		.section	.text.mbox1_setup,"ax",%progbits
 344      AFF30080 
 344      AFF30080 
 345              		.align	2
 346              		.p2align 4,,15
 347              		.thumb
 348              		.thumb_func
 349              		.type	mbox1_setup, %function
 350              	mbox1_setup:
 351              	.LFB6:
 352              		.loc 1 84 0
 353              		.cfi_startproc
 354              		@ args = 0, pretend = 0, frame = 0
 355              		@ frame_needed = 0, uses_anonymous_args = 0
 356              		.loc 1 86 0
 357 0000 40F20000 		movw	r0, #:lower16:.LANCHOR0
 358 0004 40F20001 		movw	r1, #:lower16:test
 359              		.loc 1 84 0
 360 0008 00B5     		push	{lr}
 361              	.LCFI2:
 362              		.cfi_def_cfa_offset 4
 363              		.loc 1 86 0
 364 000a C0F20001 		movt	r1, #:upper16:test
 365 000e C0F20000 		movt	r0, #:upper16:.LANCHOR0
 366 0012 0522     		movs	r2, #5
 367              		.cfi_offset 14, -4
 368 0014 FFF7FEFF 		bl	chMBInit
 369              		.loc 1 87 0
 370 0018 00BD     		pop	{pc}
 371              		.cfi_endproc
 372              	.LFE6:
 373              		.size	mbox1_setup, .-mbox1_setup
 374              		.global	testmbox1
 375              		.global	patternmbox
 376 001a 00BFAFF3 		.section	.rodata.str1.4,"aMS",%progbits,1
 376      0080
 377              		.align	2
 378              	.LC0:
 379 0000 4D61696C 		.ascii	"Mailboxes, queuing and timeouts\000"
 379      626F7865 
 379      732C2071 
 379      75657569 
 379      6E672061 
 380              	.LC1:
 381 0020 41424344 		.ascii	"ABCDE\000"
 381      4500
 382 0026 0000     		.section	.rodata.patternmbox,"a",%progbits
 383              		.align	2
 384              		.type	patternmbox, %object
 385              		.size	patternmbox, 8
 386              	patternmbox:
ARM GAS  /tmp/cc1IsS09.s 			page 8


 387 0000 00000000 		.word	testmbox1
 388 0004 00000000 		.word	0
 389              		.section	.rodata.testmbox1,"a",%progbits
 390              		.align	2
 391              		.type	testmbox1, %object
 392              		.size	testmbox1, 16
 393              	testmbox1:
 394 0000 00000000 		.word	mbox1_gettest
 395 0004 00000000 		.word	mbox1_setup
 396 0008 00000000 		.word	0
 397 000c 00000000 		.word	mbox1_execute
 398              		.section	.data.mb1,"aw",%progbits
 399              		.align	2
 400              		.set	.LANCHOR0,. + 0
 401              		.type	mb1, %object
 402              		.size	mb1, 40
 403              	mb1:
 404 0000 00000000 		.word	test
 405 0004 14000000 		.word	test+20
 406 0008 00000000 		.word	test
 407 000c 00000000 		.word	test
 408 0010 10000000 		.word	mb1+16
 409 0014 10000000 		.word	mb1+16
 410 0018 00000000 		.word	0
 411 001c 1C000000 		.word	mb1+28
 412 0020 1C000000 		.word	mb1+28
 413 0024 05000000 		.word	5
 414              		.text
 415              	.Letext0:
