ARM GAS  /tmp/cc9mLEv8.s 			page 1


   1              		.syntax unified
   2              		.thumb
   3              		.file	"syncobj.c"
   4              		.section	.debug_abbrev,"",%progbits
   5              	.Ldebug_abbrev0:
   6              		.section	.debug_info,"",%progbits
   7              	.Ldebug_info0:
   8              		.section	.debug_line,"",%progbits
   9              	.Ldebug_line0:
  10 0000 CA010000 		.text
  10      02006401 
  10      00000201 
  10      FB0E0D00 
  10      01010101 
  11              	.Ltext0:
  12              		.cfi_sections	.debug_frame
  13              		.section	.text.ff_cre_syncobj,"ax",%progbits
  14              		.align	2
  15              		.p2align 4,,15
  16              		.global	ff_cre_syncobj
  17              		.thumb
  18              		.thumb_func
  19              		.type	ff_cre_syncobj, %function
  20              	ff_cre_syncobj:
  21              	.LFB5:
  22              		.file 1 "chibios/ext/fatfs/src/option/syncobj.c"
  23              		.loc 1 30 0
  24              		.cfi_startproc
  25              		@ args = 0, pretend = 0, frame = 0
  26              		@ frame_needed = 0, uses_anonymous_args = 0
  27              	.LVL0:
  28              		.loc 1 43 0
  29 0000 40F20003 		movw	r3, #:lower16:.LANCHOR0
  30              		.loc 1 30 0
  31 0004 30B5     		push	{r4, r5, lr}
  32              	.LCFI0:
  33              		.cfi_def_cfa_offset 12
  34              		.loc 1 43 0
  35 0006 C0F20003 		movt	r3, #:upper16:.LANCHOR0
  36              		.loc 1 30 0
  37 000a C4B2     		uxtb	r4, r0
  38              		.cfi_offset 14, -4
  39              		.cfi_offset 5, -8
  40              		.cfi_offset 4, -12
  41              		.loc 1 43 0
  42 000c 03EB0414 		add	r4, r3, r4, lsl #4
  43 0010 2046     		mov	r0, r4
  44              	.LVL1:
  45              		.loc 1 30 0
  46 0012 0D46     		mov	r5, r1
  47              		.loc 1 43 0
  48 0014 FFF7FEFF 		bl	chMtxInit
  49              	.LVL2:
  50              		.loc 1 44 0
  51 0018 2C60     		str	r4, [r5, #0]
  52              	.LVL3:
  53              		.loc 1 49 0
ARM GAS  /tmp/cc9mLEv8.s 			page 2


  54 001a 0120     		movs	r0, #1
  55 001c 30BD     		pop	{r4, r5, pc}
  56              		.cfi_endproc
  57              	.LFE5:
  58              		.size	ff_cre_syncobj, .-ff_cre_syncobj
  59 001e 00BF     		.section	.text.ff_del_syncobj,"ax",%progbits
  60              		.align	2
  61              		.p2align 4,,15
  62              		.global	ff_del_syncobj
  63              		.thumb
  64              		.thumb_func
  65              		.type	ff_del_syncobj, %function
  66              	ff_del_syncobj:
  67              	.LFB6:
  68              		.loc 1 64 0
  69              		.cfi_startproc
  70              		@ args = 0, pretend = 0, frame = 0
  71              		@ frame_needed = 0, uses_anonymous_args = 0
  72              		@ link register save eliminated.
  73              	.LVL4:
  74              		.loc 1 80 0
  75 0000 0120     		movs	r0, #1
  76              	.LVL5:
  77 0002 7047     		bx	lr
  78              		.cfi_endproc
  79              	.LFE6:
  80              		.size	ff_del_syncobj, .-ff_del_syncobj
  81 0004 AFF30080 		.section	.text.ff_req_grant,"ax",%progbits
  81      AFF30080 
  81      AFF30080 
  82              		.align	2
  83              		.p2align 4,,15
  84              		.global	ff_req_grant
  85              		.thumb
  86              		.thumb_func
  87              		.type	ff_req_grant, %function
  88              	ff_req_grant:
  89              	.LFB7:
  90              		.loc 1 94 0
  91              		.cfi_startproc
  92              		@ args = 0, pretend = 0, frame = 0
  93              		@ frame_needed = 0, uses_anonymous_args = 0
  94              	.LVL6:
  95 0000 00B5     		push	{lr}
  96              	.LCFI1:
  97              		.cfi_def_cfa_offset 4
  98              		.loc 1 105 0
  99              		.cfi_offset 14, -4
 100 0002 FFF7FEFF 		bl	chMtxLock
 101              	.LVL7:
 102              		.loc 1 110 0
 103 0006 0120     		movs	r0, #1
 104 0008 00BD     		pop	{pc}
 105              		.cfi_endproc
 106              	.LFE7:
 107              		.size	ff_req_grant, .-ff_req_grant
 108 000a 00BFAFF3 		.section	.text.ff_rel_grant,"ax",%progbits
ARM GAS  /tmp/cc9mLEv8.s 			page 3


 108      0080
 109              		.align	2
 110              		.p2align 4,,15
 111              		.global	ff_rel_grant
 112              		.thumb
 113              		.thumb_func
 114              		.type	ff_rel_grant, %function
 115              	ff_rel_grant:
 116              	.LFB8:
 117              		.loc 1 123 0
 118              		.cfi_startproc
 119              		@ args = 0, pretend = 0, frame = 0
 120              		@ frame_needed = 0, uses_anonymous_args = 0
 121              	.LVL8:
 122 0000 00B5     		push	{lr}
 123              	.LCFI2:
 124              		.cfi_def_cfa_offset 4
 125              		.loc 1 132 0
 126              		.cfi_offset 14, -4
 127 0002 FFF7FEFF 		bl	chMtxUnlock
 128              	.LVL9:
 129              		.loc 1 134 0
 130 0006 00BD     		pop	{pc}
 131              		.cfi_endproc
 132              	.LFE8:
 133              		.size	ff_rel_grant, .-ff_rel_grant
 134 0008 AFF30080 		.section	.bss.mutexes,"aw",%nobits
 134      AFF30080 
 135              		.align	2
 136              		.set	.LANCHOR0,. + 0
 137              		.type	mutexes, %object
 138              		.size	mutexes, 16
 139              	mutexes:
 140 0000 00000000 		.space	16
 140      00000000 
 140      00000000 
 140      00000000 
 141              		.text
 142              	.Letext0:
